:100000000C9434000C9446000C9446000C9486002A
:100010000C9495000C94A4000C9446000C9446009B
:100020000C9446000C9446000C9446000C946E0010
:100030000C9446000C9446000C9446000C94460028
:100040000C9446000C9446000C9446000C94460018
:100050000C9446000C9446000C9446000C94460008
:100060000C9446000C94460011241FBECFEFD8E03C
:10007000DEBFCDBF11E0A0E0B1E001C01D92A23112
:10008000B107E1F70E948A030C9421040C9400004C
:100090002A9A2A988EBD0DB407FEFDCF442341F065
:1000A000FB0181918EBD0DB407FEFDCF4150C9F714
:1000B0002A9A08954AE067E071E080E00C944800D5
:1000C0005E985C9A5F9A40911101BC0180E20E94A7
:1000D00048005E9A4A9BFECF5E9808951F920F9249
:1000E0000FB60F9211248F93EF93FF93E1E8F0E0A6
:1000F0008081887F808381E080930001FF91EF9170
:100100008F910F900FBE0F901F9018951F920F9216
:100110000FB60F9211248F9381E0809301018F918C
:100120000F900FBE0F901F9018951F920F920FB651
:100130000F9211248F9381E0809301018F910F9092
:100140000FBE0F901F9018951F920F920FB60F922F
:1001500011248F9381E0809301018F910F900FBE46
:100160000F901F901895CF92DF92EF92FF920F930E
:100170001F93CF93DF9300D000D0CDB7DEB78C01B3
:10018000229A84B1886284B924982C9883E58CBD26
:100190008DB58E7F8DBD8CB58C7F8CBD8CB58CBDA7
:1001A0008DB58E7F8DBD8DB581608DBD229A2A9AC9
:1001B000549A569A579A2098559852988AE680935E
:1001C000070180910801807C8093080180910901DA
:1001D000887883638093090180910A01807C806123
:1001E00080930A0180E18093110180910B01807C52
:1001F000806180930B018BE1809310015E985F9A80
:100200000E945A0080910A01807C816180930A01DA
:1002100081E18093110180910B01807C8161809349
:100220000B010E945A0080910901887884648093B0
:1002300009010E945A008AE589838A838B838C8313
:1002400020910901E22EF12CF594E794F594E794BE
:10025000F594E794F594E79487E0E822FF24C7013A
:1002600082959295907F9827807F9827922F9F78EC
:10027000982B909309010E945A004E2DBE016F5F8A
:100280007F4F82E20E94480088E4898385E88A8360
:100290008FE58B838CE58C8380910901282F277053
:1002A000A9F098E480E007C0E1E0F0E0EC0FFD1F6A
:1002B000E80FF11D9081E82FEB5FF0E0E95FFE4F62
:1002C00090838F5F8213F0CF80910901887F822B0A
:1002D000809309010E945A005E985F9AF801F280AB
:1002E000F0920201F1FE0DC052985A988091680078
:1002F00084608093680080916D00846080936D00BD
:10030000F28035E0E32EEF20C9F0F801A081B18141
:1003100020E032E14AE750E00E94E80320E030E0CC
:1003200048E250E00E94F30330930401209303015C
:100330008FE090E09093060180930501F3FC4AC0A2
:10034000E11044C0F1FC42C080E88093610088E085
:100350008093610000000000F801838183FF08C0E2
:100360001092C10080916400826080936400838158
:1003700081FF0DC0A89584B7877F84BF80916000FE
:1003800088618093600010926000F801838182FF91
:1003900004C080E880BFF801838180FF09C010920B
:1003A0007C0010927A0080916400816080936400E8
:1003B00080E00F900F900F900F90DF91CF911F91E1
:1003C0000F91FF90EF90DF90CF90089583B7817FDA
:1003D00083BFBACFF8014481558166817781E42FCC
:1003E000C52ED62EE72EFF243C2DCB01AA27BB27F6
:1003F000282F10920101442389F0F5B14095F42390
:10040000F5B954B1542354B9409168004160409308
:10041000680040916B004E2B40936B00332389F0B2
:1004200048B1C0944C2148B947B14C2147B94091DB
:10043000680042604093680040916C00432B4093F9
:100440006C00222389F03BB1809538233BB99AB1E7
:1004500098239AB9809168008460809368008091A5
:100460006D00822B80936D00F801F28085E0E82E0C
:10047000EF2066CF80E00895CF93DF93CDB7DEB74E
:1004800061970FB6F894DEBF0FBECDBF19829D876E
:100490008C874E875F87688B798B88E495E8AFE51A
:1004A000BCE58A839B83AC83BD83CE0101960E9409
:1004B000600080E061960FB6F894DEBF0FBECDBF3E
:1004C000DF91CF9108957F928F929F92AF92BF92CA
:1004D000CF92DF92EF92FF920F931F93CF93DF9310
:1004E000EC01F2E0AF2EADE0BA2EB4E29B2E8824F0
:1004F0008A9403E010E888E4C82E85E8D82E8FE5BA
:10050000E82E8CE5F82E789420910201822F8570D8
:10051000C1F080910301909104011092810010922A
:10052000800090938900809388001092850010923B
:10053000840010928200A0926F0010920001B0928D
:10054000810021FF03C05C985E9A5F9A83B78E7F1B
:1005500083BF822F857021F08091000181112DC011
:10056000922F927021FF02C04A997AC023FF04C0E3
:1005700080910101811197C083B7816083BF85B7E6
:10058000806685BF8F7D85BFF89480910201982F8A
:10059000957009F456C090910001992309F451C057
:1005A00078942091020183B78E7F83BF822F85705C
:1005B000B9F280910001882399F210920001922FE4
:1005C0009270E2E07E2E992311F05E985F9A22FFEE
:1005D00029C071FE27C081E088831C870B87C982F0
:1005E000DA82EB82FC82CE010E946000209105013C
:1005F00030910601109281001092800030938900A2
:10060000209388001092850010928400109282003E
:10061000A0926F0010920001B092810080910201BF
:1006200080FF71CF872DDF91CF911F910F91FF90A8
:10063000EF90DF90CF90BF90AF909F908F907F9082
:10064000089581FF02C04A99ABCF83FF04C0809117
:1006500001018111A5CF789488952091020176CF70
:1006600080916D008B7F80936D00809111012A9A9B
:100670002A989EBC0DB407FEFDCF882349F0FE01E9
:100680008EBC0DB407FEFDCF9EB591938150C1F78E
:100690002A9A80916D00846080936D00922F9270F1
:1006A00074E0772E90CF1092010168E0762E8BCF08
:1006B000CF93DF93CDB7DEB761970FB6F894DEBF67
:1006C0000FBECDBF1CE098E4C92E95E8D92E9FE55A
:1006D000E92E9CE5F92ECE0101960E94630282FF6D
:1006E000FACF89818370B9F38130A9F71E861F86FE
:1006F000188A198A1983CA82DB82EC82FD82CE01B4
:1007000001960E946000E7CF82E0089582E008959C
:1007100008950895CF93DF93CDB7DEB728970FB62E
:10072000F894DEBF0FBECDBFCE01019628E0FC01DC
:1007300011922A95E9F72EEF2C830E94B300809145
:1007400008018C60809308010E945A00389887E065
:1007500080937A0010927B0080E480937C0081E09B
:1007600080937E0010927B0080917A00806E80934F
:100770007A008FEF00008150E9F734E0B32E28E0D3
:10078000C12CD12C8091780090917900192F00E034
:10079000A801482BCA019370C80ED91E215091F7A9
:1007A000D694C794D694C794D694C794E12CF12CD0
:1007B000B701A6018BE29AE20E943C02B701A601B2
:1007C0008BE29AE20E943C02BA94C9F60E94580356
:1007D0000E941504A59F900DB49F900DA49F800DBD
:1007E000911D11240895A1E21A2EAA1BBB1BFD0125
:1007F0000DC0AA1FBB1FEE1FFF1FA217B307E40700
:10080000F50720F0A21BB30BE40BF50B661F771F57
:10081000881F991F1A9469F7609570958095909537
:100820009B01AC01BD01CF010895A29FB001B39F10
:10083000C001A39F01D0B29F700D811D1124911D95
:060840000895F894FFCFBB
:00000001FF
